{
  "contractName": "TokenGrant",
  "abi": [
    {
      "inputs": [
        {
          "internalType": "uint256",
          "name": "_redemptionAmountPerUser",
          "type": "uint256"
        }
      ],
      "stateMutability": "nonpayable",
      "type": "constructor"
    },
    {
      "inputs": [],
      "name": "EnforcedPause",
      "type": "error"
    },
    {
      "inputs": [],
      "name": "ExpectedPause",
      "type": "error"
    },
    {
      "inputs": [
        {
          "internalType": "address",
          "name": "owner",
          "type": "address"
        }
      ],
      "name": "OwnableInvalidOwner",
      "type": "error"
    },
    {
      "inputs": [
        {
          "internalType": "address",
          "name": "account",
          "type": "address"
        }
      ],
      "name": "OwnableUnauthorizedAccount",
      "type": "error"
    },
    {
      "inputs": [],
      "name": "ReentrancyGuardReentrantCall",
      "type": "error"
    },
    {
      "anonymous": false,
      "inputs": [
        {
          "indexed": false,
          "internalType": "uint256",
          "name": "totalTokens",
          "type": "uint256"
        },
        {
          "indexed": false,
          "internalType": "uint256",
          "name": "redemptionAmount",
          "type": "uint256"
        }
      ],
      "name": "GrantCreated",
      "type": "event"
    },
    {
      "anonymous": false,
      "inputs": [
        {
          "indexed": false,
          "internalType": "uint256",
          "name": "amount",
          "type": "uint256"
        }
      ],
      "name": "GrantFunded",
      "type": "event"
    },
    {
      "anonymous": false,
      "inputs": [
        {
          "indexed": false,
          "internalType": "uint256",
          "name": "totalTokens",
          "type": "uint256"
        },
        {
          "indexed": false,
          "internalType": "uint256",
          "name": "redemptionAmount",
          "type": "uint256"
        }
      ],
      "name": "GrantUpdated",
      "type": "event"
    },
    {
      "anonymous": false,
      "inputs": [
        {
          "indexed": true,
          "internalType": "address",
          "name": "previousOwner",
          "type": "address"
        },
        {
          "indexed": true,
          "internalType": "address",
          "name": "newOwner",
          "type": "address"
        }
      ],
      "name": "OwnershipTransferred",
      "type": "event"
    },
    {
      "anonymous": false,
      "inputs": [
        {
          "indexed": false,
          "internalType": "address",
          "name": "account",
          "type": "address"
        }
      ],
      "name": "Paused",
      "type": "event"
    },
    {
      "anonymous": false,
      "inputs": [
        {
          "indexed": true,
          "internalType": "address",
          "name": "user",
          "type": "address"
        },
        {
          "indexed": false,
          "internalType": "uint256",
          "name": "amount",
          "type": "uint256"
        }
      ],
      "name": "TokensRedeemed",
      "type": "event"
    },
    {
      "anonymous": false,
      "inputs": [
        {
          "indexed": false,
          "internalType": "address",
          "name": "account",
          "type": "address"
        }
      ],
      "name": "Unpaused",
      "type": "event"
    },
    {
      "inputs": [
        {
          "internalType": "address",
          "name": "",
          "type": "address"
        }
      ],
      "name": "hasRedeemed",
      "outputs": [
        {
          "internalType": "bool",
          "name": "",
          "type": "bool"
        }
      ],
      "stateMutability": "view",
      "type": "function"
    },
    {
      "inputs": [],
      "name": "owner",
      "outputs": [
        {
          "internalType": "address",
          "name": "",
          "type": "address"
        }
      ],
      "stateMutability": "view",
      "type": "function"
    },
    {
      "inputs": [],
      "name": "paused",
      "outputs": [
        {
          "internalType": "bool",
          "name": "",
          "type": "bool"
        }
      ],
      "stateMutability": "view",
      "type": "function"
    },
    {
      "inputs": [],
      "name": "redemptionAmountPerUser",
      "outputs": [
        {
          "internalType": "uint256",
          "name": "",
          "type": "uint256"
        }
      ],
      "stateMutability": "view",
      "type": "function"
    },
    {
      "inputs": [],
      "name": "renounceOwnership",
      "outputs": [],
      "stateMutability": "nonpayable",
      "type": "function"
    },
    {
      "inputs": [],
      "name": "tokensRedeemed",
      "outputs": [
        {
          "internalType": "uint256",
          "name": "",
          "type": "uint256"
        }
      ],
      "stateMutability": "view",
      "type": "function"
    },
    {
      "inputs": [],
      "name": "totalTokensAvailable",
      "outputs": [
        {
          "internalType": "uint256",
          "name": "",
          "type": "uint256"
        }
      ],
      "stateMutability": "view",
      "type": "function"
    },
    {
      "inputs": [
        {
          "internalType": "address",
          "name": "newOwner",
          "type": "address"
        }
      ],
      "name": "transferOwnership",
      "outputs": [],
      "stateMutability": "nonpayable",
      "type": "function"
    },
    {
      "inputs": [],
      "name": "fundGrant",
      "outputs": [],
      "stateMutability": "payable",
      "type": "function"
    },
    {
      "inputs": [],
      "name": "redeemTokens",
      "outputs": [],
      "stateMutability": "nonpayable",
      "type": "function"
    },
    {
      "inputs": [
        {
          "internalType": "uint256",
          "name": "_redemptionAmountPerUser",
          "type": "uint256"
        }
      ],
      "name": "updateGrant",
      "outputs": [],
      "stateMutability": "nonpayable",
      "type": "function"
    },
    {
      "inputs": [],
      "name": "getRemainingTokens",
      "outputs": [
        {
          "internalType": "uint256",
          "name": "",
          "type": "uint256"
        }
      ],
      "stateMutability": "view",
      "type": "function"
    },
    {
      "inputs": [],
      "name": "getRemainingRedemptions",
      "outputs": [
        {
          "internalType": "uint256",
          "name": "",
          "type": "uint256"
        }
      ],
      "stateMutability": "view",
      "type": "function"
    },
    {
      "inputs": [
        {
          "internalType": "address",
          "name": "_user",
          "type": "address"
        }
      ],
      "name": "hasAddressRedeemed",
      "outputs": [
        {
          "internalType": "bool",
          "name": "",
          "type": "bool"
        }
      ],
      "stateMutability": "view",
      "type": "function"
    },
    {
      "inputs": [],
      "name": "emergencyWithdraw",
      "outputs": [],
      "stateMutability": "nonpayable",
      "type": "function"
    },
    {
      "inputs": [],
      "name": "pause",
      "outputs": [],
      "stateMutability": "nonpayable",
      "type": "function"
    },
    {
      "inputs": [],
      "name": "unpause",
      "outputs": [],
      "stateMutability": "nonpayable",
      "type": "function"
    },
    {
      "inputs": [],
      "name": "getBalance",
      "outputs": [
        {
          "internalType": "uint256",
          "name": "",
          "type": "uint256"
        }
      ],
      "stateMutability": "view",
      "type": "function"
    }
  ],
  "bytecode": "0x60806040523480156200001157600080fd5b506040516200175c3803806200175c833981810160405281019062000037919062000214565b33600073ffffffffffffffffffffffffffffffffffffffff168173ffffffffffffffffffffffffffffffffffffffff1603620000ad5760006040517f1e4fbdf7000000000000000000000000000000000000000000000000000000008152600401620000a491906200028b565b60405180910390fd5b620000be816200011060201b60201c565b5060018081905550806004819055507fd70cc60c15a4768fd587c52f2d330998f24f9ec63afd44c3e8dbfa35f07719f76000826040516200010192919062000306565b60405180910390a15062000333565b60008060009054906101000a900473ffffffffffffffffffffffffffffffffffffffff169050816000806101000a81548173ffffffffffffffffffffffffffffffffffffffff021916908373ffffffffffffffffffffffffffffffffffffffff1602179055508173ffffffffffffffffffffffffffffffffffffffff168173ffffffffffffffffffffffffffffffffffffffff167f8be0079c531659141344cd1fd0a4f28419497f9722a3daafe3b4186f6b6457e060405160405180910390a35050565b600080fd5b6000819050919050565b620001ee81620001d9565b8114620001fa57600080fd5b50565b6000815190506200020e81620001e3565b92915050565b6000602082840312156200022d576200022c620001d4565b5b60006200023d84828501620001fd565b91505092915050565b600073ffffffffffffffffffffffffffffffffffffffff82169050919050565b6000620002738262000246565b9050919050565b620002858162000266565b82525050565b6000602082019050620002a260008301846200027a565b92915050565b6000819050919050565b6000819050919050565b6000620002dd620002d7620002d184620002a8565b620002b2565b620001d9565b9050919050565b620002ef81620002bc565b82525050565b6200030081620001d9565b82525050565b60006040820190506200031d6000830185620002e4565b6200032c6020830184620002f5565b9392505050565b61141980620003436000396000f3fe6080604052600436106101095760003560e01c80638da5cb5b11610095578063db2e21bc11610064578063db2e21bc146102f0578063db78b67c14610307578063e9a9c50c14610344578063f2fde38b1461035b578063f827c5571461038457610109565b80638da5cb5b146102325780638e8031441461025d5780639809db0a14610288578063af35ae27146102c557610109565b806360d8e3ed116100dc57806360d8e3ed146101855780636dd2cbe5146101ae578063715018a6146101d95780638456cb59146101f057806389cbc4161461020757610109565b8063025c2bdb1461010e57806312065fe0146101185780633f4ba83a146101435780635c975abb1461015a575b600080fd5b6101166103af565b005b34801561012457600080fd5b5061012d61044c565b60405161013a9190610d30565b60405180910390f35b34801561014f57600080fd5b50610158610454565b005b34801561016657600080fd5b5061016f610466565b60405161017c9190610d66565b60405180910390f35b34801561019157600080fd5b506101ac60048036038101906101a79190610db2565b61047d565b005b3480156101ba57600080fd5b506101c36104ca565b6040516101d09190610d30565b60405180910390f35b3480156101e557600080fd5b506101ee6104d0565b005b3480156101fc57600080fd5b506102056104e4565b005b34801561021357600080fd5b5061021c6104f6565b6040516102299190610d30565b60405180910390f35b34801561023e57600080fd5b506102476104fc565b6040516102549190610e20565b60405180910390f35b34801561026957600080fd5b50610272610525565b60405161027f9190610d30565b60405180910390f35b34801561029457600080fd5b506102af60048036038101906102aa9190610e67565b61055c565b6040516102bc9190610d66565b60405180910390f35b3480156102d157600080fd5b506102da6105b2565b6040516102e79190610d30565b60405180910390f35b3480156102fc57600080fd5b506103056105c9565b005b34801561031357600080fd5b5061032e60048036038101906103299190610e67565b6106d0565b60405161033b9190610d66565b60405180910390f35b34801561035057600080fd5b506103596106f0565b005b34801561036757600080fd5b50610382600480360381019061037d9190610e67565b6109a2565b005b34801561039057600080fd5b50610399610a28565b6040516103a69190610d30565b60405180910390f35b6103b7610a2e565b600034116103fa576040517f08c379a00000000000000000000000000000000000000000000000000000000081526004016103f190610f17565b60405180910390fd5b346003600082825461040c9190610f66565b925050819055507f66892f30263121fa0d98ef1c96bca221c9afaf4c5d3980620905fd6e0a923ebc346040516104429190610d30565b60405180910390a1565b600047905090565b61045c610a2e565b610464610ab5565b565b6000600260009054906101000a900460ff16905090565b610485610a2e565b806004819055507f228be5176b377af4da2c92c51f6734fbb27a00671e57e24fcfcc8afdf981000d600354826040516104bf929190610f9a565b60405180910390a150565b60035481565b6104d8610a2e565b6104e26000610b18565b565b6104ec610a2e565b6104f4610bdc565b565b60055481565b60008060009054906101000a900473ffffffffffffffffffffffffffffffffffffffff16905090565b600080600454036105395760009050610559565b60045460055460035461054c9190610fc3565b6105569190611026565b90505b90565b6000600660008373ffffffffffffffffffffffffffffffffffffffff1673ffffffffffffffffffffffffffffffffffffffff16815260200190815260200160002060009054906101000a900460ff169050919050565b60006005546003546105c49190610fc3565b905090565b6105d1610a2e565b600047905060008111610619576040517f08c379a0000000000000000000000000000000000000000000000000000000008152600401610610906110a3565b60405180910390fd5b60006106236104fc565b73ffffffffffffffffffffffffffffffffffffffff1682604051610646906110f4565b60006040518083038185875af1925050503d8060008114610683576040519150601f19603f3d011682016040523d82523d6000602084013e610688565b606091505b50509050806106cc576040517f08c379a00000000000000000000000000000000000000000000000000000000081526004016106c39061117b565b60405180910390fd5b5050565b60066020528060005260406000206000915054906101000a900460ff1681565b6106f8610c3f565b610700610c85565b600660003373ffffffffffffffffffffffffffffffffffffffff1673ffffffffffffffffffffffffffffffffffffffff16815260200190815260200160002060009054906101000a900460ff161561078d576040517f08c379a00000000000000000000000000000000000000000000000000000000081526004016107849061120d565b60405180910390fd5b6000600454116107d2576040517f08c379a00000000000000000000000000000000000000000000000000000000081526004016107c99061129f565b60405180910390fd5b6003546004546005546107e59190610f66565b1115610826576040517f08c379a000000000000000000000000000000000000000000000000000000000815260040161081d90611331565b60405180910390fd5b6001600660003373ffffffffffffffffffffffffffffffffffffffff1673ffffffffffffffffffffffffffffffffffffffff16815260200190815260200160002060006101000a81548160ff021916908315150217905550600454600560008282546108929190610f66565b9250508190555060003373ffffffffffffffffffffffffffffffffffffffff166004546040516108c1906110f4565b60006040518083038185875af1925050503d80600081146108fe576040519150601f19603f3d011682016040523d82523d6000602084013e610903565b606091505b5050905080610947576040517f08c379a000000000000000000000000000000000000000000000000000000000815260040161093e906113c3565b60405180910390fd5b3373ffffffffffffffffffffffffffffffffffffffff167fcdd4c59de26b3f8623e6012ab9bc32a995eda3452d89c941fc8af6b74276ad3860045460405161098f9190610d30565b60405180910390a2506109a0610cc6565b565b6109aa610a2e565b600073ffffffffffffffffffffffffffffffffffffffff168173ffffffffffffffffffffffffffffffffffffffff1603610a1c5760006040517f1e4fbdf7000000000000000000000000000000000000000000000000000000008152600401610a139190610e20565b60405180910390fd5b610a2581610b18565b50565b60045481565b610a36610ccf565b73ffffffffffffffffffffffffffffffffffffffff16610a546104fc565b73ffffffffffffffffffffffffffffffffffffffff1614610ab357610a77610ccf565b6040517f118cdaa7000000000000000000000000000000000000000000000000000000008152600401610aaa9190610e20565b60405180910390fd5b565b610abd610cd7565b6000600260006101000a81548160ff0219169083151502179055507f5db9ee0a495bf2e6ff9c91a7834c1ba4fdd244a5e8aa4e537bd38aeae4b073aa610b01610ccf565b604051610b0e9190610e20565b60405180910390a1565b60008060009054906101000a900473ffffffffffffffffffffffffffffffffffffffff169050816000806101000a81548173ffffffffffffffffffffffffffffffffffffffff021916908373ffffffffffffffffffffffffffffffffffffffff1602179055508173ffffffffffffffffffffffffffffffffffffffff168173ffffffffffffffffffffffffffffffffffffffff167f8be0079c531659141344cd1fd0a4f28419497f9722a3daafe3b4186f6b6457e060405160405180910390a35050565b610be4610c85565b6001600260006101000a81548160ff0219169083151502179055507f62e78cea01bee320cd4e420270b5ea74000d11b0c9f74754ebdbfc544b05a258610c28610ccf565b604051610c359190610e20565b60405180910390a1565b600260015403610c7b576040517f3ee5aeb500000000000000000000000000000000000000000000000000000000815260040160405180910390fd5b6002600181905550565b610c8d610466565b15610cc4576040517fd93c066500000000000000000000000000000000000000000000000000000000815260040160405180910390fd5b565b60018081905550565b600033905090565b610cdf610466565b610d15576040517f8dfc202b00000000000000000000000000000000000000000000000000000000815260040160405180910390fd5b565b6000819050919050565b610d2a81610d17565b82525050565b6000602082019050610d456000830184610d21565b92915050565b60008115159050919050565b610d6081610d4b565b82525050565b6000602082019050610d7b6000830184610d57565b92915050565b600080fd5b610d8f81610d17565b8114610d9a57600080fd5b50565b600081359050610dac81610d86565b92915050565b600060208284031215610dc857610dc7610d81565b5b6000610dd684828501610d9d565b91505092915050565b600073ffffffffffffffffffffffffffffffffffffffff82169050919050565b6000610e0a82610ddf565b9050919050565b610e1a81610dff565b82525050565b6000602082019050610e356000830184610e11565b92915050565b610e4481610dff565b8114610e4f57600080fd5b50565b600081359050610e6181610e3b565b92915050565b600060208284031215610e7d57610e7c610d81565b5b6000610e8b84828501610e52565b91505092915050565b600082825260208201905092915050565b7f546f6b656e4772616e743a204d7573742073656e64204d41525320746f6b656e60008201527f7320746f2066756e640000000000000000000000000000000000000000000000602082015250565b6000610f01602983610e94565b9150610f0c82610ea5565b604082019050919050565b60006020820190508181036000830152610f3081610ef4565b9050919050565b7f4e487b7100000000000000000000000000000000000000000000000000000000600052601160045260246000fd5b6000610f7182610d17565b9150610f7c83610d17565b9250828201905080821115610f9457610f93610f37565b5b92915050565b6000604082019050610faf6000830185610d21565b610fbc6020830184610d21565b9392505050565b6000610fce82610d17565b9150610fd983610d17565b9250828203905081811115610ff157610ff0610f37565b5b92915050565b7f4e487b7100000000000000000000000000000000000000000000000000000000600052601260045260246000fd5b600061103182610d17565b915061103c83610d17565b92508261104c5761104b610ff7565b5b828204905092915050565b7f546f6b656e4772616e743a204e6f2066756e647320746f207769746864726177600082015250565b600061108d602083610e94565b915061109882611057565b602082019050919050565b600060208201905081810360008301526110bc81611080565b9050919050565b600081905092915050565b50565b60006110de6000836110c3565b91506110e9826110ce565b600082019050919050565b60006110ff826110d1565b9150819050919050565b7f546f6b656e4772616e743a204661696c656420746f207769746864726177206660008201527f756e647300000000000000000000000000000000000000000000000000000000602082015250565b6000611165602483610e94565b915061117082611109565b604082019050919050565b6000602082019050818103600083015261119481611158565b9050919050565b7f546f6b656e4772616e743a20416464726573732068617320616c72656164792060008201527f72656465656d6564000000000000000000000000000000000000000000000000602082015250565b60006111f7602883610e94565b91506112028261119b565b604082019050919050565b60006020820190508181036000830152611226816111ea565b9050919050565b7f546f6b656e4772616e743a20526564656d7074696f6e20616d6f756e74206e6f60008201527f7420736574000000000000000000000000000000000000000000000000000000602082015250565b6000611289602583610e94565b91506112948261122d565b604082019050919050565b600060208201905081810360008301526112b88161127c565b9050919050565b7f546f6b656e4772616e743a20496e73756666696369656e7420746f6b656e732060008201527f72656d61696e696e670000000000000000000000000000000000000000000000602082015250565b600061131b602983610e94565b9150611326826112bf565b604082019050919050565b6000602082019050818103600083015261134a8161130e565b9050919050565b7f546f6b656e4772616e743a204661696c656420746f207472616e73666572204d60008201527f41525320746f6b656e7300000000000000000000000000000000000000000000602082015250565b60006113ad602a83610e94565b91506113b882611351565b604082019050919050565b600060208201905081810360008301526113dc816113a0565b905091905056fea2646970667358221220df971c67352f5892961e8bab8b643391d76dbb3832f76e6ec7ba32f92d82705164736f6c63430008140033",
  "immutableReferences": {},
  "source": "// SPDX-License-Identifier: MIT\npragma solidity ^0.8.17;\n\nimport \"@openzeppelin/contracts/access/Ownable.sol\";\nimport \"@openzeppelin/contracts/utils/ReentrancyGuard.sol\";\nimport \"@openzeppelin/contracts/utils/Pausable.sol\";\n\n/**\n * @title TokenGrant\n * @dev Smart contract for managing MARS token grants on Mars Credit Network\n * Users can redeem a fixed amount of MARS tokens once per address\n */\ncontract TokenGrant is Ownable, ReentrancyGuard, Pausable {\n    // Events\n    event GrantCreated(uint256 totalTokens, uint256 redemptionAmount);\n    event GrantFunded(uint256 amount);\n    event TokensRedeemed(address indexed user, uint256 amount);\n    event GrantUpdated(uint256 totalTokens, uint256 redemptionAmount);\n\n    // State variables\n    uint256 public totalTokensAvailable;\n    uint256 public redemptionAmountPerUser;\n    uint256 public tokensRedeemed;\n    mapping(address => bool) public hasRedeemed;\n\n    // Constructor\n    constructor(uint256 _redemptionAmountPerUser) Ownable(msg.sender) {\n        redemptionAmountPerUser = _redemptionAmountPerUser;\n        emit GrantCreated(0, _redemptionAmountPerUser);\n    }\n\n    /**\n     * @dev Fund the contract with MARS tokens\n     * Only owner can fund the contract\n     */\n    function fundGrant() external payable onlyOwner {\n        require(msg.value > 0, \"TokenGrant: Must send MARS tokens to fund\");\n        totalTokensAvailable += msg.value;\n        emit GrantFunded(msg.value);\n    }\n\n    /**\n     * @dev Redeem MARS tokens for the caller\n     * Each address can only redeem once\n     */\n    function redeemTokens() external nonReentrant whenNotPaused {\n        require(\n            !hasRedeemed[msg.sender],\n            \"TokenGrant: Address has already redeemed\"\n        );\n        require(\n            redemptionAmountPerUser > 0,\n            \"TokenGrant: Redemption amount not set\"\n        );\n        require(\n            tokensRedeemed + redemptionAmountPerUser <= totalTokensAvailable,\n            \"TokenGrant: Insufficient tokens remaining\"\n        );\n\n        // Mark as redeemed first to prevent reentrancy\n        hasRedeemed[msg.sender] = true;\n        tokensRedeemed += redemptionAmountPerUser;\n\n        // Transfer MARS tokens to user\n        (bool success, ) = payable(msg.sender).call{\n            value: redemptionAmountPerUser\n        }(\"\");\n        require(success, \"TokenGrant: Failed to transfer MARS tokens\");\n\n        emit TokensRedeemed(msg.sender, redemptionAmountPerUser);\n    }\n\n    /**\n     * @dev Update grant parameters\n     * Only owner can update\n     */\n    function updateGrant(uint256 _redemptionAmountPerUser) external onlyOwner {\n        redemptionAmountPerUser = _redemptionAmountPerUser;\n        emit GrantUpdated(totalTokensAvailable, _redemptionAmountPerUser);\n    }\n\n    /**\n     * @dev Get remaining tokens available for redemption\n     */\n    function getRemainingTokens() external view returns (uint256) {\n        return totalTokensAvailable - tokensRedeemed;\n    }\n\n    /**\n     * @dev Get number of users who can still redeem\n     */\n    function getRemainingRedemptions() external view returns (uint256) {\n        if (redemptionAmountPerUser == 0) return 0;\n        return\n            (totalTokensAvailable - tokensRedeemed) / redemptionAmountPerUser;\n    }\n\n    /**\n     * @dev Check if an address has already redeemed\n     */\n    function hasAddressRedeemed(address _user) external view returns (bool) {\n        return hasRedeemed[_user];\n    }\n\n    /**\n     * @dev Emergency withdrawal function\n     * Only owner can withdraw remaining funds\n     */\n    function emergencyWithdraw() external onlyOwner {\n        uint256 balance = address(this).balance;\n        require(balance > 0, \"TokenGrant: No funds to withdraw\");\n\n        (bool success, ) = payable(owner()).call{value: balance}(\"\");\n        require(success, \"TokenGrant: Failed to withdraw funds\");\n    }\n\n    /**\n     * @dev Pause the contract\n     * Only owner can pause\n     */\n    function pause() external onlyOwner {\n        _pause();\n    }\n\n    /**\n     * @dev Unpause the contract\n     * Only owner can unpause\n     */\n    function unpause() external onlyOwner {\n        _unpause();\n    }\n\n    /**\n     * @dev Get contract balance\n     */\n    function getBalance() external view returns (uint256) {\n        return address(this).balance;\n    }\n}\n",
  "sourcePath": "/Users/jeremycrane/Repositories/defi-marscredit/contracts/TokenGrant.sol",
  "compiler": {
    "name": "solc",
    "version": "0.8.20+commit.a1b79de6.Emscripten.clang"
  },
  "schemaVersion": "3.4.16",
  "updatedAt": "2025-07-01T20:07:40.013Z",
  "devdoc": {
    "details": "Smart contract for managing MARS token grants on Mars Credit Network Users can redeem a fixed amount of MARS tokens once per address",
    "errors": {
      "EnforcedPause()": [
        {
          "details": "The operation failed because the contract is paused."
        }
      ],
      "ExpectedPause()": [
        {
          "details": "The operation failed because the contract is not paused."
        }
      ],
      "OwnableInvalidOwner(address)": [
        {
          "details": "The owner is not a valid owner account. (eg. `address(0)`)"
        }
      ],
      "OwnableUnauthorizedAccount(address)": [
        {
          "details": "The caller account is not authorized to perform an operation."
        }
      ],
      "ReentrancyGuardReentrantCall()": [
        {
          "details": "Unauthorized reentrant call."
        }
      ]
    },
    "events": {
      "Paused(address)": {
        "details": "Emitted when the pause is triggered by `account`."
      },
      "Unpaused(address)": {
        "details": "Emitted when the pause is lifted by `account`."
      }
    },
    "kind": "dev",
    "methods": {
      "emergencyWithdraw()": {
        "details": "Emergency withdrawal function Only owner can withdraw remaining funds"
      },
      "fundGrant()": {
        "details": "Fund the contract with MARS tokens Only owner can fund the contract"
      },
      "getBalance()": {
        "details": "Get contract balance"
      },
      "getRemainingRedemptions()": {
        "details": "Get number of users who can still redeem"
      },
      "getRemainingTokens()": {
        "details": "Get remaining tokens available for redemption"
      },
      "hasAddressRedeemed(address)": {
        "details": "Check if an address has already redeemed"
      },
      "owner()": {
        "details": "Returns the address of the current owner."
      },
      "pause()": {
        "details": "Pause the contract Only owner can pause"
      },
      "paused()": {
        "details": "Returns true if the contract is paused, and false otherwise."
      },
      "redeemTokens()": {
        "details": "Redeem MARS tokens for the caller Each address can only redeem once"
      },
      "renounceOwnership()": {
        "details": "Leaves the contract without owner. It will not be possible to call `onlyOwner` functions. Can only be called by the current owner. NOTE: Renouncing ownership will leave the contract without an owner, thereby disabling any functionality that is only available to the owner."
      },
      "transferOwnership(address)": {
        "details": "Transfers ownership of the contract to a new account (`newOwner`). Can only be called by the current owner."
      },
      "unpause()": {
        "details": "Unpause the contract Only owner can unpause"
      },
      "updateGrant(uint256)": {
        "details": "Update grant parameters Only owner can update"
      }
    },
    "title": "TokenGrant",
    "version": 1
  },
  "userdoc": {
    "kind": "user",
    "methods": {},
    "version": 1
  }
}