{
  "contractName": "TokenGrant",
  "abi": [
    {
      "inputs": [
        {
          "internalType": "uint256",
          "name": "_redemptionAmountPerUser",
          "type": "uint256"
        }
      ],
      "stateMutability": "nonpayable",
      "type": "constructor"
    },
    {
      "inputs": [],
      "name": "EnforcedPause",
      "type": "error"
    },
    {
      "inputs": [],
      "name": "ExpectedPause",
      "type": "error"
    },
    {
      "inputs": [
        {
          "internalType": "address",
          "name": "owner",
          "type": "address"
        }
      ],
      "name": "OwnableInvalidOwner",
      "type": "error"
    },
    {
      "inputs": [
        {
          "internalType": "address",
          "name": "account",
          "type": "address"
        }
      ],
      "name": "OwnableUnauthorizedAccount",
      "type": "error"
    },
    {
      "inputs": [],
      "name": "ReentrancyGuardReentrantCall",
      "type": "error"
    },
    {
      "anonymous": false,
      "inputs": [
        {
          "indexed": false,
          "internalType": "uint256",
          "name": "totalTokens",
          "type": "uint256"
        },
        {
          "indexed": false,
          "internalType": "uint256",
          "name": "redemptionAmount",
          "type": "uint256"
        }
      ],
      "name": "GrantCreated",
      "type": "event"
    },
    {
      "anonymous": false,
      "inputs": [
        {
          "indexed": false,
          "internalType": "uint256",
          "name": "amount",
          "type": "uint256"
        }
      ],
      "name": "GrantFunded",
      "type": "event"
    },
    {
      "anonymous": false,
      "inputs": [
        {
          "indexed": false,
          "internalType": "uint256",
          "name": "totalTokens",
          "type": "uint256"
        },
        {
          "indexed": false,
          "internalType": "uint256",
          "name": "redemptionAmount",
          "type": "uint256"
        }
      ],
      "name": "GrantUpdated",
      "type": "event"
    },
    {
      "anonymous": false,
      "inputs": [
        {
          "indexed": true,
          "internalType": "address",
          "name": "previousOwner",
          "type": "address"
        },
        {
          "indexed": true,
          "internalType": "address",
          "name": "newOwner",
          "type": "address"
        }
      ],
      "name": "OwnershipTransferred",
      "type": "event"
    },
    {
      "anonymous": false,
      "inputs": [
        {
          "indexed": false,
          "internalType": "address",
          "name": "account",
          "type": "address"
        }
      ],
      "name": "Paused",
      "type": "event"
    },
    {
      "anonymous": false,
      "inputs": [
        {
          "indexed": true,
          "internalType": "address",
          "name": "user",
          "type": "address"
        },
        {
          "indexed": false,
          "internalType": "uint256",
          "name": "amount",
          "type": "uint256"
        }
      ],
      "name": "TokensRedeemed",
      "type": "event"
    },
    {
      "anonymous": false,
      "inputs": [
        {
          "indexed": false,
          "internalType": "address",
          "name": "account",
          "type": "address"
        }
      ],
      "name": "Unpaused",
      "type": "event"
    },
    {
      "inputs": [
        {
          "internalType": "address",
          "name": "",
          "type": "address"
        }
      ],
      "name": "hasRedeemed",
      "outputs": [
        {
          "internalType": "bool",
          "name": "",
          "type": "bool"
        }
      ],
      "stateMutability": "view",
      "type": "function"
    },
    {
      "inputs": [],
      "name": "owner",
      "outputs": [
        {
          "internalType": "address",
          "name": "",
          "type": "address"
        }
      ],
      "stateMutability": "view",
      "type": "function"
    },
    {
      "inputs": [],
      "name": "paused",
      "outputs": [
        {
          "internalType": "bool",
          "name": "",
          "type": "bool"
        }
      ],
      "stateMutability": "view",
      "type": "function"
    },
    {
      "inputs": [],
      "name": "redemptionAmountPerUser",
      "outputs": [
        {
          "internalType": "uint256",
          "name": "",
          "type": "uint256"
        }
      ],
      "stateMutability": "view",
      "type": "function"
    },
    {
      "inputs": [],
      "name": "renounceOwnership",
      "outputs": [],
      "stateMutability": "nonpayable",
      "type": "function"
    },
    {
      "inputs": [],
      "name": "tokensRedeemed",
      "outputs": [
        {
          "internalType": "uint256",
          "name": "",
          "type": "uint256"
        }
      ],
      "stateMutability": "view",
      "type": "function"
    },
    {
      "inputs": [],
      "name": "totalTokensAvailable",
      "outputs": [
        {
          "internalType": "uint256",
          "name": "",
          "type": "uint256"
        }
      ],
      "stateMutability": "view",
      "type": "function"
    },
    {
      "inputs": [
        {
          "internalType": "address",
          "name": "newOwner",
          "type": "address"
        }
      ],
      "name": "transferOwnership",
      "outputs": [],
      "stateMutability": "nonpayable",
      "type": "function"
    },
    {
      "inputs": [],
      "name": "fundGrant",
      "outputs": [],
      "stateMutability": "payable",
      "type": "function"
    },
    {
      "inputs": [],
      "name": "redeemTokens",
      "outputs": [],
      "stateMutability": "nonpayable",
      "type": "function"
    },
    {
      "inputs": [
        {
          "internalType": "uint256",
          "name": "_redemptionAmountPerUser",
          "type": "uint256"
        }
      ],
      "name": "updateGrant",
      "outputs": [],
      "stateMutability": "nonpayable",
      "type": "function"
    },
    {
      "inputs": [],
      "name": "getRemainingTokens",
      "outputs": [
        {
          "internalType": "uint256",
          "name": "",
          "type": "uint256"
        }
      ],
      "stateMutability": "view",
      "type": "function"
    },
    {
      "inputs": [],
      "name": "getRemainingRedemptions",
      "outputs": [
        {
          "internalType": "uint256",
          "name": "",
          "type": "uint256"
        }
      ],
      "stateMutability": "view",
      "type": "function"
    },
    {
      "inputs": [
        {
          "internalType": "address",
          "name": "_user",
          "type": "address"
        }
      ],
      "name": "hasAddressRedeemed",
      "outputs": [
        {
          "internalType": "bool",
          "name": "",
          "type": "bool"
        }
      ],
      "stateMutability": "view",
      "type": "function"
    },
    {
      "inputs": [],
      "name": "emergencyWithdraw",
      "outputs": [],
      "stateMutability": "nonpayable",
      "type": "function"
    },
    {
      "inputs": [],
      "name": "pause",
      "outputs": [],
      "stateMutability": "nonpayable",
      "type": "function"
    },
    {
      "inputs": [],
      "name": "unpause",
      "outputs": [],
      "stateMutability": "nonpayable",
      "type": "function"
    },
    {
      "inputs": [],
      "name": "getBalance",
      "outputs": [
        {
          "internalType": "uint256",
          "name": "",
          "type": "uint256"
        }
      ],
      "stateMutability": "view",
      "type": "function"
    }
  ],
  "bytecode": "0x608060405234801561000f575f80fd5b50604051610b81380380610b8183398101604081905261002e916100f4565b338061005357604051631e4fbdf760e01b81525f600482015260240160405180910390fd5b61005c816100a5565b50600180556004819055604080515f8152602081018390527fd70cc60c15a4768fd587c52f2d330998f24f9ec63afd44c3e8dbfa35f07719f7910160405180910390a15061010b565b5f80546001600160a01b038381166001600160a01b0319831681178455604051919092169283917f8be0079c531659141344cd1fd0a4f28419497f9722a3daafe3b4186f6b6457e09190a35050565b5f60208284031215610104575f80fd5b5051919050565b610a69806101185f395ff3fe608060405260043610610105575f3560e01c80638da5cb5b11610092578063db2e21bc11610062578063db2e21bc14610261578063db78b67c14610275578063e9a9c50c146102a3578063f2fde38b146102b7578063f827c557146102d6575f80fd5b80638da5cb5b146101dc5780638e803144146102025780639809db0a14610216578063af35ae271461024d575f80fd5b806360d8e3ed116100d857806360d8e3ed1461016b5780636dd2cbe51461018a578063715018a61461019f5780638456cb59146101b357806389cbc416146101c7575f80fd5b8063025c2bdb1461010957806312065fe0146101135780633f4ba83a146101345780635c975abb14610148575b5f80fd5b6101116102eb565b005b34801561011e575f80fd5b50475b6040519081526020015b60405180910390f35b34801561013f575f80fd5b506101116103a5565b348015610153575f80fd5b5060025460ff165b604051901515815260200161012b565b348015610176575f80fd5b50610111610185366004610990565b6103b7565b348015610195575f80fd5b5061012160035481565b3480156101aa575f80fd5b50610111610403565b3480156101be575f80fd5b50610111610414565b3480156101d2575f80fd5b5061012160055481565b3480156101e7575f80fd5b505f546040516001600160a01b03909116815260200161012b565b34801561020d575f80fd5b50610121610424565b348015610221575f80fd5b5061015b6102303660046109a7565b6001600160a01b03165f9081526006602052604090205460ff1690565b348015610258575f80fd5b50610121610455565b34801561026c575f80fd5b50610111610466565b348015610280575f80fd5b5061015b61028f3660046109a7565b60066020525f908152604090205460ff1681565b3480156102ae575f80fd5b5061011161056c565b3480156102c2575f80fd5b506101116102d13660046109a7565b6107dd565b3480156102e1575f80fd5b5061012160045481565b6102f361081a565b5f34116103595760405162461bcd60e51b815260206004820152602960248201527f546f6b656e4772616e743a204d7573742073656e64204d41525320746f6b656e6044820152681cc81d1bc8199d5b9960ba1b60648201526084015b60405180910390fd5b3460035f82825461036a91906109e8565b90915550506040513481527f66892f30263121fa0d98ef1c96bca221c9afaf4c5d3980620905fd6e0a923ebc906020015b60405180910390a1565b6103ad61081a565b6103b5610846565b565b6103bf61081a565b600481905560035460408051918252602082018390527f228be5176b377af4da2c92c51f6734fbb27a00671e57e24fcfcc8afdf981000d910160405180910390a150565b61040b61081a565b6103b55f610893565b61041c61081a565b6103b56108e2565b5f6004545f0361043357505f90565b6004546005546003546104469190610a01565b6104509190610a14565b905090565b5f6005546003546104509190610a01565b61046e61081a565b47806104bc5760405162461bcd60e51b815260206004820181905260248201527f546f6b656e4772616e743a204e6f2066756e647320746f2077697468647261776044820152606401610350565b5f80546040516001600160a01b039091169083908381818185875af1925050503d805f8114610506576040519150601f19603f3d011682016040523d82523d5f602084013e61050b565b606091505b50509050806105685760405162461bcd60e51b8152602060048201526024808201527f546f6b656e4772616e743a204661696c656420746f2077697468647261772066604482015263756e647360e01b6064820152608401610350565b5050565b61057461091f565b61057c610949565b335f9081526006602052604090205460ff16156105ec5760405162461bcd60e51b815260206004820152602860248201527f546f6b656e4772616e743a20416464726573732068617320616c7265616479206044820152671c995919595b595960c21b6064820152608401610350565b5f6004541161064b5760405162461bcd60e51b815260206004820152602560248201527f546f6b656e4772616e743a20526564656d7074696f6e20616d6f756e74206e6f6044820152641d081cd95d60da1b6064820152608401610350565b60035460045460055461065e91906109e8565b11156106be5760405162461bcd60e51b815260206004820152602960248201527f546f6b656e4772616e743a20496e73756666696369656e7420746f6b656e732060448201526872656d61696e696e6760b81b6064820152608401610350565b335f908152600660205260408120805460ff1916600117905560045460058054919290916106ed9084906109e8565b90915550506004546040515f9133918381818185875af1925050503d805f8114610732576040519150601f19603f3d011682016040523d82523d5f602084013e610737565b606091505b505090508061079b5760405162461bcd60e51b815260206004820152602a60248201527f546f6b656e4772616e743a204661696c656420746f207472616e73666572204d60448201526941525320746f6b656e7360b01b6064820152608401610350565b60045460405190815233907fcdd4c59de26b3f8623e6012ab9bc32a995eda3452d89c941fc8af6b74276ad389060200160405180910390a2506103b560018055565b6107e561081a565b6001600160a01b03811661080e57604051631e4fbdf760e01b81525f6004820152602401610350565b61081781610893565b50565b5f546001600160a01b031633146103b55760405163118cdaa760e01b8152336004820152602401610350565b61084e61096d565b6002805460ff191690557f5db9ee0a495bf2e6ff9c91a7834c1ba4fdd244a5e8aa4e537bd38aeae4b073aa335b6040516001600160a01b03909116815260200161039b565b5f80546001600160a01b038381166001600160a01b0319831681178455604051919092169283917f8be0079c531659141344cd1fd0a4f28419497f9722a3daafe3b4186f6b6457e09190a35050565b6108ea610949565b6002805460ff191660011790557f62e78cea01bee320cd4e420270b5ea74000d11b0c9f74754ebdbfc544b05a25861087b3390565b60026001540361094257604051633ee5aeb560e01b815260040160405180910390fd5b6002600155565b60025460ff16156103b55760405163d93c066560e01b815260040160405180910390fd5b60025460ff166103b557604051638dfc202b60e01b815260040160405180910390fd5b5f602082840312156109a0575f80fd5b5035919050565b5f602082840312156109b7575f80fd5b81356001600160a01b03811681146109cd575f80fd5b9392505050565b634e487b7160e01b5f52601160045260245ffd5b808201808211156109fb576109fb6109d4565b92915050565b818103818111156109fb576109fb6109d4565b5f82610a2e57634e487b7160e01b5f52601260045260245ffd5b50049056fea26469706673582212203bdcdfda5b462fbcfe84212ad6411a9523ea9b4aeb8f346a2caba715d5981dbf64736f6c63430008140033",
  "immutableReferences": {},
  "source": "// SPDX-License-Identifier: MIT\npragma solidity ^0.8.20;\n\nimport \"@openzeppelin/contracts/access/Ownable.sol\";\nimport \"@openzeppelin/contracts/utils/ReentrancyGuard.sol\";\nimport \"@openzeppelin/contracts/utils/Pausable.sol\";\n\n/**\n * @title TokenGrant\n * @dev Smart contract for managing MARS token grants on Mars Credit Network\n * Users can redeem a fixed amount of MARS tokens once per address\n */\ncontract TokenGrant is Ownable, ReentrancyGuard, Pausable {\n    // Events\n    event GrantCreated(uint256 totalTokens, uint256 redemptionAmount);\n    event GrantFunded(uint256 amount);\n    event TokensRedeemed(address indexed user, uint256 amount);\n    event GrantUpdated(uint256 totalTokens, uint256 redemptionAmount);\n\n    // State variables\n    uint256 public totalTokensAvailable;\n    uint256 public redemptionAmountPerUser;\n    uint256 public tokensRedeemed;\n    mapping(address => bool) public hasRedeemed;\n\n    // Constructor\n    constructor(uint256 _redemptionAmountPerUser) Ownable(msg.sender) {\n        redemptionAmountPerUser = _redemptionAmountPerUser;\n        emit GrantCreated(0, _redemptionAmountPerUser);\n    }\n\n    /**\n     * @dev Fund the contract with MARS tokens\n     * Only owner can fund the contract\n     */\n    function fundGrant() external payable onlyOwner {\n        require(msg.value > 0, \"TokenGrant: Must send MARS tokens to fund\");\n        totalTokensAvailable += msg.value;\n        emit GrantFunded(msg.value);\n    }\n\n    /**\n     * @dev Redeem MARS tokens for the caller\n     * Each address can only redeem once\n     */\n    function redeemTokens() external nonReentrant whenNotPaused {\n        require(\n            !hasRedeemed[msg.sender],\n            \"TokenGrant: Address has already redeemed\"\n        );\n        require(\n            redemptionAmountPerUser > 0,\n            \"TokenGrant: Redemption amount not set\"\n        );\n        require(\n            tokensRedeemed + redemptionAmountPerUser <= totalTokensAvailable,\n            \"TokenGrant: Insufficient tokens remaining\"\n        );\n\n        // Mark as redeemed first to prevent reentrancy\n        hasRedeemed[msg.sender] = true;\n        tokensRedeemed += redemptionAmountPerUser;\n\n        // Transfer MARS tokens to user\n        (bool success, ) = payable(msg.sender).call{\n            value: redemptionAmountPerUser\n        }(\"\");\n        require(success, \"TokenGrant: Failed to transfer MARS tokens\");\n\n        emit TokensRedeemed(msg.sender, redemptionAmountPerUser);\n    }\n\n    /**\n     * @dev Update grant parameters\n     * Only owner can update\n     */\n    function updateGrant(uint256 _redemptionAmountPerUser) external onlyOwner {\n        redemptionAmountPerUser = _redemptionAmountPerUser;\n        emit GrantUpdated(totalTokensAvailable, _redemptionAmountPerUser);\n    }\n\n    /**\n     * @dev Get remaining tokens available for redemption\n     */\n    function getRemainingTokens() external view returns (uint256) {\n        return totalTokensAvailable - tokensRedeemed;\n    }\n\n    /**\n     * @dev Get number of users who can still redeem\n     */\n    function getRemainingRedemptions() external view returns (uint256) {\n        if (redemptionAmountPerUser == 0) return 0;\n        return\n            (totalTokensAvailable - tokensRedeemed) / redemptionAmountPerUser;\n    }\n\n    /**\n     * @dev Check if an address has already redeemed\n     */\n    function hasAddressRedeemed(address _user) external view returns (bool) {\n        return hasRedeemed[_user];\n    }\n\n    /**\n     * @dev Emergency withdrawal function\n     * Only owner can withdraw remaining funds\n     */\n    function emergencyWithdraw() external onlyOwner {\n        uint256 balance = address(this).balance;\n        require(balance > 0, \"TokenGrant: No funds to withdraw\");\n\n        (bool success, ) = payable(owner()).call{value: balance}(\"\");\n        require(success, \"TokenGrant: Failed to withdraw funds\");\n    }\n\n    /**\n     * @dev Pause the contract\n     * Only owner can pause\n     */\n    function pause() external onlyOwner {\n        _pause();\n    }\n\n    /**\n     * @dev Unpause the contract\n     * Only owner can unpause\n     */\n    function unpause() external onlyOwner {\n        _unpause();\n    }\n\n    /**\n     * @dev Get contract balance\n     */\n    function getBalance() external view returns (uint256) {\n        return address(this).balance;\n    }\n}\n",
  "sourcePath": "/Users/jeremycrane/Repositories/defi-marscredit/contracts/TokenGrant.sol",
  "compiler": {
    "name": "solc",
    "version": "0.8.20+commit.a1b79de6.Emscripten.clang"
  },
  "schemaVersion": "3.4.16",
  "updatedAt": "2025-06-27T01:50:56.947Z",
  "devdoc": {
    "details": "Smart contract for managing MARS token grants on Mars Credit Network Users can redeem a fixed amount of MARS tokens once per address",
    "errors": {
      "EnforcedPause()": [
        {
          "details": "The operation failed because the contract is paused."
        }
      ],
      "ExpectedPause()": [
        {
          "details": "The operation failed because the contract is not paused."
        }
      ],
      "OwnableInvalidOwner(address)": [
        {
          "details": "The owner is not a valid owner account. (eg. `address(0)`)"
        }
      ],
      "OwnableUnauthorizedAccount(address)": [
        {
          "details": "The caller account is not authorized to perform an operation."
        }
      ],
      "ReentrancyGuardReentrantCall()": [
        {
          "details": "Unauthorized reentrant call."
        }
      ]
    },
    "events": {
      "Paused(address)": {
        "details": "Emitted when the pause is triggered by `account`."
      },
      "Unpaused(address)": {
        "details": "Emitted when the pause is lifted by `account`."
      }
    },
    "kind": "dev",
    "methods": {
      "emergencyWithdraw()": {
        "details": "Emergency withdrawal function Only owner can withdraw remaining funds"
      },
      "fundGrant()": {
        "details": "Fund the contract with MARS tokens Only owner can fund the contract"
      },
      "getBalance()": {
        "details": "Get contract balance"
      },
      "getRemainingRedemptions()": {
        "details": "Get number of users who can still redeem"
      },
      "getRemainingTokens()": {
        "details": "Get remaining tokens available for redemption"
      },
      "hasAddressRedeemed(address)": {
        "details": "Check if an address has already redeemed"
      },
      "owner()": {
        "details": "Returns the address of the current owner."
      },
      "pause()": {
        "details": "Pause the contract Only owner can pause"
      },
      "paused()": {
        "details": "Returns true if the contract is paused, and false otherwise."
      },
      "redeemTokens()": {
        "details": "Redeem MARS tokens for the caller Each address can only redeem once"
      },
      "renounceOwnership()": {
        "details": "Leaves the contract without owner. It will not be possible to call `onlyOwner` functions. Can only be called by the current owner. NOTE: Renouncing ownership will leave the contract without an owner, thereby disabling any functionality that is only available to the owner."
      },
      "transferOwnership(address)": {
        "details": "Transfers ownership of the contract to a new account (`newOwner`). Can only be called by the current owner."
      },
      "unpause()": {
        "details": "Unpause the contract Only owner can unpause"
      },
      "updateGrant(uint256)": {
        "details": "Update grant parameters Only owner can update"
      }
    },
    "title": "TokenGrant",
    "version": 1
  },
  "userdoc": {
    "kind": "user",
    "methods": {},
    "version": 1
  }
}